{
  "contractName": "EvenOdd",
  "abi": [
    {
      "inputs": [],
      "name": "number",
      "outputs": [
        {
          "internalType": "uint256",
          "name": "",
          "type": "uint256"
        }
      ],
      "stateMutability": "view",
      "type": "function"
    },
    {
      "inputs": [
        {
          "internalType": "uint256",
          "name": "_number",
          "type": "uint256"
        }
      ],
      "name": "checkEvenOdd",
      "outputs": [
        {
          "internalType": "string",
          "name": "",
          "type": "string"
        }
      ],
      "stateMutability": "nonpayable",
      "type": "function"
    }
  ],
  "bytecode": "0x608060405234801561001057600080fd5b5061030c806100206000396000f3fe608060405234801561001057600080fd5b50600436106100365760003560e01c80638381f58a1461003b578063fd7df3a514610059575b600080fd5b610043610089565b6040516100509190610142565b60405180910390f35b610073600480360381019061006e919061018e565b61008f565b6040516100809190610254565b60405180910390f35b60005481565b606081600081905550600060026000546100a991906102a5565b036100eb576040518060400160405280600481526020017f4576656e000000000000000000000000000000000000000000000000000000008152509050610124565b6040518060400160405280600381526020017f4f6464000000000000000000000000000000000000000000000000000000000081525090505b919050565b6000819050919050565b61013c81610129565b82525050565b60006020820190506101576000830184610133565b92915050565b600080fd5b61016b81610129565b811461017657600080fd5b50565b60008135905061018881610162565b92915050565b6000602082840312156101a4576101a361015d565b5b60006101b284828501610179565b91505092915050565b600081519050919050565b600082825260208201905092915050565b60005b838110156101f55780820151818401526020810190506101da565b83811115610204576000848401525b50505050565b6000601f19601f8301169050919050565b6000610226826101bb565b61023081856101c6565b93506102408185602086016101d7565b6102498161020a565b840191505092915050565b6000602082019050818103600083015261026e818461021b565b905092915050565b7f4e487b7100000000000000000000000000000000000000000000000000000000600052601260045260246000fd5b60006102b082610129565b91506102bb83610129565b9250826102cb576102ca610276565b5b82820690509291505056fea26469706673582212205080b6566c6877acae01d3c6a7574af1962a7336fb80a58c0d59374af7a80b1864736f6c634300080d0033",
  "immutableReferences": {},
  "source": "// SPDX-License-Identifier: MIT\r\npragma solidity >=0.4.22 <0.9.0;\r\ncontract EvenOdd {\r\n    uint256 public number;\r\n\r\n    function checkEvenOdd(uint256 _number) public returns (string memory) {\r\n        number = _number;\r\n        if (number % 2 == 0) {\r\n            return \"Even\";\r\n        } else {\r\n            return \"Odd\";\r\n        }\r\n    }\r\n}\r\n",
  "sourcePath": "C:\\Users\\rajen\\OneDrive\\Desktop\\truffleAssg\\contracts\\demo3.sol",
  "compiler": {
    "name": "solc",
    "version": "0.8.13+commit.abaa5c0e.Emscripten.clang"
  },
  "schemaVersion": "3.4.16",
  "updatedAt": "2024-09-05T15:56:30.605Z",
  "devdoc": {
    "kind": "dev",
    "methods": {},
    "version": 1
  },
  "userdoc": {
    "kind": "user",
    "methods": {},
    "version": 1
  }
}