{
  "contractName": "Sum",
  "abi": [
    {
      "inputs": [
        {
          "internalType": "uint256",
          "name": "a",
          "type": "uint256"
        },
        {
          "internalType": "uint256",
          "name": "b",
          "type": "uint256"
        }
      ],
      "name": "add",
      "outputs": [],
      "stateMutability": "nonpayable",
      "type": "function"
    },
    {
      "inputs": [],
      "name": "getResult",
      "outputs": [
        {
          "internalType": "uint256",
          "name": "",
          "type": "uint256"
        }
      ],
      "stateMutability": "view",
      "type": "function",
      "constant": true
    }
  ],
  "bytecode": "0x608060405234801561001057600080fd5b506101f4806100206000396000f3fe608060405234801561001057600080fd5b50600436106100365760003560e01c8063771602f71461003b578063de29278914610057575b600080fd5b610055600480360381019061005091906100cf565b610075565b005b61005f61008b565b60405161006c919061011e565b60405180910390f35b80826100819190610168565b6000819055505050565b60008054905090565b600080fd5b6000819050919050565b6100ac81610099565b81146100b757600080fd5b50565b6000813590506100c9816100a3565b92915050565b600080604083850312156100e6576100e5610094565b5b60006100f4858286016100ba565b9250506020610105858286016100ba565b9150509250929050565b61011881610099565b82525050565b6000602082019050610133600083018461010f565b92915050565b7f4e487b7100000000000000000000000000000000000000000000000000000000600052601160045260246000fd5b600061017382610099565b915061017e83610099565b9250827fffffffffffffffffffffffffffffffffffffffffffffffffffffffffffffffff038211156101b3576101b2610139565b5b82820190509291505056fea26469706673582212209402cf5c73fea7c3f3e410facd5ae8d0cc22aa4ed994b2988ae59187abd99a4064736f6c634300080d0033",
  "immutableReferences": {},
  "source": "// SPDX-License-Identifier: MIT\r\npragma solidity >=0.4.22 <0.9.0;\r\n\r\ncontract Sum {\r\n    uint256 result;\r\n\r\n    function add(uint256 a, uint256 b) public \r\n    {\r\n        result = a+b;\r\n    }\r\n\r\n    function getResult() public view returns (uint256)\r\n    {\r\n        return result;\r\n    }\r\n}\r\n",
  "sourcePath": "C:\\Users\\rajen\\OneDrive\\Desktop\\truffleAssg\\contracts\\add.sol",
  "compiler": {
    "name": "solc",
    "version": "0.8.13+commit.abaa5c0e.Emscripten.clang"
  },
  "schemaVersion": "3.4.16",
  "updatedAt": "2024-09-05T15:56:33.543Z",
  "networkType": "ethereum",
  "devdoc": {
    "kind": "dev",
    "methods": {},
    "version": 1
  },
  "userdoc": {
    "kind": "user",
    "methods": {},
    "version": 1
  }
}